:0400000084EF03F096
:08000800046ED8CF05F0E0CF33
:1000100006F00001E9CF0CF0EACF07F0E1CF08F0DD
:10002000E2CF09F0D9CF0AF0DACF0BF0F3CF12F01C
:10003000F4CF13F0FACF14F000C00EF001C00FF0AF
:1000400002C010F003C011F09DA02AEF00F09EB096
:1000500051EF00F0A3A030EF00F0A4B04AEF01F0A0
:100060000EC000F00FC001F010C002F011C003F08C
:100070000CC0E9FF07C0EAFF078E08C0E1FF09C016
:10008000E2FF0AC0D9FF0BC0DAFF12C0F3FF13C0B2
:10009000F4FF14C0FAFF045006C0E0FF05C0D8FF0B
:1000A0001000CF68DC0ECE6E95908C709E9030EF75
:1000B00000F0556A546A536A526A50C057F04FC0F4
:1000C00056F05152D8B489D056C0E9FF57C0EAFF64
:1000D000556A546A536AEFCF52F05650D8B4570657
:1000E000560656C0E9FF57C0EAFFEF505A6A596AF0
:1000F000586E006A00505212585053125950541200
:100100005A5055125650D8B45706560656C0E9FFF5
:1001100057C0EAFFEF505B6A5A6A596A586E030E7D
:100120005816596A5A6A5B6A006A016A005052128C
:1001300001505312585054125950551256C0E9FFED
:1001400057C0EAFFEF505B6A5A6A596A586EE00E70
:100150005816596A5A6A5B6A006A5834016E5934F3
:10016000026E5A34036E0136023603360136023609
:100170000336013602360336013602360336E00E08
:1001800001160050521201505312025054120350E3
:1001900055125650D8B45706560656C0E9FF57C0F8
:1001A000EAFFEF50596A586E006A016A5834026ECD
:1001B0005934036E023603360236033602360336EE
:1001C00002360336E00E021600505212015053124E
:1001D000025054120350551253D0020E565E000EB8
:1001E000575A56C0E9FF57C0EAFFEF505B6A5A6A98
:1001F000596A586EE00E5816596A5A6A5B6A5B3043
:10020000556E5A30546E5930536E5830526E5532C6
:1002100054325332523255325432533252325532B2
:100220005432533252325532543253325232070E14
:1002300055165650D8B45706560656C0E9FF57C053
:10024000EAFFEF505B6A5A6A596A586E5834006E7A
:100250005934016E5A34026E5B34036E0036013637
:10026000023603360036013602360336F80E001623
:1002700000505212015053120250541203505512A2
:1002800052C000F053C001F054C002F055C003F05A
:100290009CEF01F060BE04D00F0150AF82D000018E
:1002A000446A1E0E436E60AE17D0F10E6F146F6E6F
:1002B0001998A490199074BE1980749E60A40BD0F4
:1002C000000E60B0010E070B006ED8900036F10EE4
:1002D00019140010196E1CD00F0150AF15D0F10E7B
:1002E0006F140A096F6E1988A492199074BC198052
:1002F000749C5051070B070B006ED8900036F10E1E
:1003000019140010196E03D0000E016E4AD00001BE
:1003100065500F0B266E199A65BC198A199C62B636
:10032000198C000E19BC010E486E0F0E506E640E33
:100330004F6E48C051F0BDD603C01DF002C01CF086
:1003400001C01BF000C01AF00F0E476E660E466E1D
:10035000456A2650455C14E246C0E9FF47C0EAFF03
:10036000EFCF4AF044C0EAFF43C0E9FF4AC0EFFFC5
:10037000432AD8B4442A462AD8B4472A452AE9D77A
:10038000F10E6F146F6E199EA4BE198EA49E19A84B
:1003900004D00F01509F03D00001609E0F01010E99
:1003A000016E1E50BB0A000103E00B0A04E006D0F8
:1003B0009294898403D09292898200D0A49030EFE5
:1003C00000F02838700B006ED89000361F0E6F14A6
:1003D00000106F6E6ECF00F0003A0030070B285C03
:1003E000F9E11200C00E70140409706E3F0E701413
:1003F000706EF80E71140209716EC70E711428091F
:10040000716E719C718EF80E72140509726E729C79
:10041000A6EF02F037C03EF036C03DF03C5252E04D
:100420003DC0E9FF3EC0EAFF38C0EFFF3D50D8B401
:100430003E063D063DC0E9FF3EC0EAFF39C0EFFF82
:100440003D50D8B43E063D063DC0E9FF3EC0EAFF40
:100450003A50030BEF6E3DC0E9FF3EC0EAFF3AC0E1
:1004600000F0003600360036F80E00160050E00BA3
:10047000EF10EF6E3DC0E9FF3EC0EAFFEF50080904
:10048000EF6E3D50D8B43E063D063DC0E9FF3EC08C
:10049000EAFF3AC000F0003A0032070E00160050A2
:1004A000070BEF6E3DC0E9FF3EC0EAFF3BC000F026
:1004B000003600360036F80E00160050F80BEF102C
:1004C000EF6E3FD03DC0E9FF3EC0EAFFEF6A3D500E
:1004D000D8B43E063D063DC0E9FF3EC0EAFFEF6AE4
:1004E0003D50D8B43E063D063DC0E9FF3EC0EAFFA0
:1004F00038C000F0003A0036E00E00160050E00B65
:10050000EF6E3D50D8B43E063D063DC0E9FF3EC00B
:10051000EAFF38C000F00032003200321F0E001631
:1005200000501F0BEF6E3DC0E9FF3EC0EAFF39C02F
:1005300000F0003A0036E00E00160050E00BEF101D
:10054000EF6E1200040E286E3CDF4CD7606A9F0EDF
:100550006014606E608460CF50FF739A7398739ECE
:10056000739C0F0E376E1B0E366E3B6A3A6A396A01
:10057000386A010E3C6E4EDF0F0E376E030E366E7C
:100580003B6A3A6A396A386A010E3C6E43DF0F0EE5
:10059000376E070E366E3B6A3A6A396A386A010E60
:1005A0003C6E38DF0F0E376E1F0E366E3B6A3A6AAE
:1005B000396A386A010E3C6E2DDF0F0E376E0B0E56
:1005C000366E3B6A3A6A396A386A010E3C6E22DF3F
:1005D0000F0E376E366E3B6A3A6A396A386A010E18
:1005E0003C6E18DF0F0E376E130E366E3B6A3A6A9A
:1005F000396A386A010E3C6E0DDF0F0E376E170E2A
:10060000366E3B6A3A6A396A386A010E3C6E02DF1E
:100610009350FB0B0809936E286AD3DE95EF03F025
:100620000F0E346E660E336E0F0140B706D0F10E1A
:100630006F1408096F6E356A15D030B707D0F10E08
:100640006F1406096F6E010E356E0CD020B707D0FF
:10065000F10E6F1404096F6E020E356E03D0000E9A
:10066000016E3BD02F50030B006EFC0E6014001087
:10067000606E0F0E376E640E366E2BC03BF02AC0D4
:100680003AF029C039F028C038F030C03CF0000101
:10069000C1DE2EC065FF659C31B0658C326A2E507C
:1006A000325C14E22CC0E9FF2DC0EAFFEFCF38F036
:1006B00034C0EAFF33C0E9FF38C0EFFF332AD8B4B3
:1006C000342A2C2AD8B42D2A322AE9D76086F10E92
:1006D0006F146F6E010E016E0F010001F0EF03F059
:1006E000EA6A290EE96EEF500DE0060E016E006A0F
:1006F000002EFED7012EFBD77B0E006E002EFED7FC
:10070000EF2EF3D7FFEF03F0F86AD09E078E279005
:10071000C180C182C184C196070EB46E450E166EAB
:10072000410E176E420E186E0DD7040E286E49DE6C
:10073000C00E70140409706E3F0E7014706EF80EC7
:1007400071140209716EC70E71142809716E719CC3
:10075000719EF80E72140509726E728C286A31DE71
:10076000B16AD26AC180C182C184C196C290969892
:10077000C69A949A94889496010EC66E000EC76E1F
:10078000D190800ED56EB50ECD6E000ECA6E000EE5
:10079000CB6E070EB46E9550956E9650966E100EF9
:1007A000006E002EFED70000B450A19CB56A9D805B
:1007B000C00EF2120F0140A704D030A702D020B71C
:1007C00010D02B6A2A6A296A060E286E2D6A160E28
:1007D0002C6E030E2E6E2F6A306A316A000120D70C
:1007E0000F01929489949292899292908970959235
:1007F0008C72040E286EFA0E296E000171D7282E15
:0C08000001D002D00F01F7D7D5D70300BC
:020000040030CA
:0E00000000220D0E000081000FC00FE00F4027
:00000001FF
;PIC18F458
;CRC=CA57  CREATED="02-Haz-24 16:55"
